{
  "_format": "hh-sol-artifact-1",
  "contractName": "QuaiVault",
  "sourceName": "contracts/QuaiVault.sol",
  "abi": [
    {
      "inputs": [],
      "stateMutability": "nonpayable",
      "type": "constructor"
    },
    {
      "inputs": [],
      "name": "AlreadyAnOwner",
      "type": "error"
    },
    {
      "inputs": [],
      "name": "AlreadyApproved",
      "type": "error"
    },
    {
      "inputs": [],
      "name": "CalldataTooShort",
      "type": "error"
    },
    {
      "inputs": [],
      "name": "CannotCancelApprovedTransaction",
      "type": "error"
    },
    {
      "inputs": [],
      "name": "CannotRemoveOwnerWouldFallBelowThreshold",
      "type": "error"
    },
    {
      "inputs": [
        {
          "internalType": "address",
          "name": "target",
          "type": "address"
        }
      ],
      "name": "DelegateCallNotAllowed",
      "type": "error"
    },
    {
      "inputs": [
        {
          "internalType": "address",
          "name": "target",
          "type": "address"
        }
      ],
      "name": "DelegatecallTargetAlreadyAllowed",
      "type": "error"
    },
    {
      "inputs": [
        {
          "internalType": "address",
          "name": "target",
          "type": "address"
        }
      ],
      "name": "DelegatecallTargetNotAllowed",
      "type": "error"
    },
    {
      "inputs": [],
      "name": "DuplicateOwner",
      "type": "error"
    },
    {
      "inputs": [],
      "name": "ExecutionDelayTooLong",
      "type": "error"
    },
    {
      "inputs": [
        {
          "internalType": "uint256",
          "name": "minimumExpiration",
          "type": "uint256"
        }
      ],
      "name": "ExpirationTooSoon",
      "type": "error"
    },
    {
      "inputs": [],
      "name": "ImplementationSlotTampered",
      "type": "error"
    },
    {
      "inputs": [],
      "name": "InvalidDestinationAddress",
      "type": "error"
    },
    {
      "inputs": [],
      "name": "InvalidInitialization",
      "type": "error"
    },
    {
      "inputs": [
        {
          "internalType": "address",
          "name": "module",
          "type": "address"
        }
      ],
      "name": "InvalidModule",
      "type": "error"
    },
    {
      "inputs": [],
      "name": "InvalidOwnerAddress",
      "type": "error"
    },
    {
      "inputs": [
        {
          "internalType": "address",
          "name": "prevModule",
          "type": "address"
        }
      ],
      "name": "InvalidPrevModule",
      "type": "error"
    },
    {
      "inputs": [],
      "name": "InvalidThreshold",
      "type": "error"
    },
    {
      "inputs": [],
      "name": "MaxModulesReached",
      "type": "error"
    },
    {
      "inputs": [],
      "name": "MaxOwnersReached",
      "type": "error"
    },
    {
      "inputs": [],
      "name": "MessageNotSigned",
      "type": "error"
    },
    {
      "inputs": [],
      "name": "ModuleAlreadyEnabled",
      "type": "error"
    },
    {
      "inputs": [],
      "name": "ModuleNotEnabled",
      "type": "error"
    },
    {
      "inputs": [],
      "name": "NotAnAuthorizedModule",
      "type": "error"
    },
    {
      "inputs": [],
      "name": "NotAnOwner",
      "type": "error"
    },
    {
      "inputs": [],
      "name": "NotApproved",
      "type": "error"
    },
    {
      "inputs": [],
      "name": "NotEnoughApprovals",
      "type": "error"
    },
    {
      "inputs": [],
      "name": "NotInitializing",
      "type": "error"
    },
    {
      "inputs": [],
      "name": "NotProposer",
      "type": "error"
    },
    {
      "inputs": [],
      "name": "OnlySelf",
      "type": "error"
    },
    {
      "inputs": [],
      "name": "OwnersRequired",
      "type": "error"
    },
    {
      "inputs": [],
      "name": "ReentrancyGuardReentrantCall",
      "type": "error"
    },
    {
      "inputs": [],
      "name": "SelfCallCannotHaveValue",
      "type": "error"
    },
    {
      "inputs": [
        {
          "internalType": "uint256",
          "name": "executableAfter",
          "type": "uint256"
        }
      ],
      "name": "TimelockNotElapsed",
      "type": "error"
    },
    {
      "inputs": [],
      "name": "TooManyOwners",
      "type": "error"
    },
    {
      "inputs": [],
      "name": "TransactionAlreadyCancelled",
      "type": "error"
    },
    {
      "inputs": [],
      "name": "TransactionAlreadyExecuted",
      "type": "error"
    },
    {
      "inputs": [],
      "name": "TransactionAlreadyExists",
      "type": "error"
    },
    {
      "inputs": [],
      "name": "TransactionDoesNotExist",
      "type": "error"
    },
    {
      "inputs": [],
      "name": "TransactionIsExpired",
      "type": "error"
    },
    {
      "inputs": [],
      "name": "TransactionNotExpired",
      "type": "error"
    },
    {
      "inputs": [
        {
          "internalType": "bytes4",
          "name": "selector",
          "type": "bytes4"
        }
      ],
      "name": "UnrecognizedSelfCall",
      "type": "error"
    },
    {
      "anonymous": false,
      "inputs": [
        {
          "indexed": true,
          "internalType": "bytes32",
          "name": "txHash",
          "type": "bytes32"
        },
        {
          "indexed": true,
          "internalType": "address",
          "name": "owner",
          "type": "address"
        }
      ],
      "name": "ApprovalRevoked",
      "type": "event"
    },
    {
      "anonymous": false,
      "inputs": [
        {
          "indexed": true,
          "internalType": "address",
          "name": "target",
          "type": "address"
        }
      ],
      "name": "DelegatecallTargetAdded",
      "type": "event"
    },
    {
      "anonymous": false,
      "inputs": [
        {
          "indexed": true,
          "internalType": "address",
          "name": "target",
          "type": "address"
        }
      ],
      "name": "DelegatecallTargetRemoved",
      "type": "event"
    },
    {
      "anonymous": false,
      "inputs": [
        {
          "indexed": true,
          "internalType": "address",
          "name": "module",
          "type": "address"
        }
      ],
      "name": "DisabledModule",
      "type": "event"
    },
    {
      "anonymous": false,
      "inputs": [
        {
          "indexed": true,
          "internalType": "address",
          "name": "module",
          "type": "address"
        }
      ],
      "name": "EnabledModule",
      "type": "event"
    },
    {
      "anonymous": false,
      "inputs": [
        {
          "indexed": true,
          "internalType": "address",
          "name": "module",
          "type": "address"
        }
      ],
      "name": "ExecutionFromModuleFailure",
      "type": "event"
    },
    {
      "anonymous": false,
      "inputs": [
        {
          "indexed": true,
          "internalType": "address",
          "name": "module",
          "type": "address"
        }
      ],
      "name": "ExecutionFromModuleSuccess",
      "type": "event"
    },
    {
      "anonymous": false,
      "inputs": [
        {
          "indexed": false,
          "internalType": "uint64",
          "name": "version",
          "type": "uint64"
        }
      ],
      "name": "Initialized",
      "type": "event"
    },
    {
      "anonymous": false,
      "inputs": [
        {
          "indexed": true,
          "internalType": "bytes32",
          "name": "msgHash",
          "type": "bytes32"
        },
        {
          "indexed": false,
          "internalType": "bytes",
          "name": "data",
          "type": "bytes"
        }
      ],
      "name": "MessageSigned",
      "type": "event"
    },
    {
      "anonymous": false,
      "inputs": [
        {
          "indexed": true,
          "internalType": "bytes32",
          "name": "msgHash",
          "type": "bytes32"
        },
        {
          "indexed": false,
          "internalType": "bytes",
          "name": "data",
          "type": "bytes"
        }
      ],
      "name": "MessageUnsigned",
      "type": "event"
    },
    {
      "anonymous": false,
      "inputs": [
        {
          "indexed": false,
          "internalType": "uint32",
          "name": "oldDelay",
          "type": "uint32"
        },
        {
          "indexed": false,
          "internalType": "uint32",
          "name": "newDelay",
          "type": "uint32"
        }
      ],
      "name": "MinExecutionDelayChanged",
      "type": "event"
    },
    {
      "anonymous": false,
      "inputs": [
        {
          "indexed": true,
          "internalType": "address",
          "name": "owner",
          "type": "address"
        }
      ],
      "name": "OwnerAdded",
      "type": "event"
    },
    {
      "anonymous": false,
      "inputs": [
        {
          "indexed": true,
          "internalType": "address",
          "name": "owner",
          "type": "address"
        }
      ],
      "name": "OwnerRemoved",
      "type": "event"
    },
    {
      "anonymous": false,
      "inputs": [
        {
          "indexed": true,
          "internalType": "address",
          "name": "sender",
          "type": "address"
        },
        {
          "indexed": false,
          "internalType": "uint256",
          "name": "amount",
          "type": "uint256"
        }
      ],
      "name": "Received",
      "type": "event"
    },
    {
      "anonymous": false,
      "inputs": [
        {
          "indexed": false,
          "internalType": "uint256",
          "name": "threshold",
          "type": "uint256"
        }
      ],
      "name": "ThresholdChanged",
      "type": "event"
    },
    {
      "anonymous": false,
      "inputs": [
        {
          "indexed": true,
          "internalType": "bytes32",
          "name": "txHash",
          "type": "bytes32"
        },
        {
          "indexed": false,
          "internalType": "uint48",
          "name": "approvedAt",
          "type": "uint48"
        },
        {
          "indexed": false,
          "internalType": "uint256",
          "name": "executableAfter",
          "type": "uint256"
        }
      ],
      "name": "ThresholdReached",
      "type": "event"
    },
    {
      "anonymous": false,
      "inputs": [
        {
          "indexed": true,
          "internalType": "bytes32",
          "name": "txHash",
          "type": "bytes32"
        },
        {
          "indexed": true,
          "internalType": "address",
          "name": "approver",
          "type": "address"
        }
      ],
      "name": "TransactionApproved",
      "type": "event"
    },
    {
      "anonymous": false,
      "inputs": [
        {
          "indexed": true,
          "internalType": "bytes32",
          "name": "txHash",
          "type": "bytes32"
        },
        {
          "indexed": true,
          "internalType": "address",
          "name": "canceller",
          "type": "address"
        }
      ],
      "name": "TransactionCancelled",
      "type": "event"
    },
    {
      "anonymous": false,
      "inputs": [
        {
          "indexed": true,
          "internalType": "bytes32",
          "name": "txHash",
          "type": "bytes32"
        },
        {
          "indexed": true,
          "internalType": "address",
          "name": "executor",
          "type": "address"
        }
      ],
      "name": "TransactionExecuted",
      "type": "event"
    },
    {
      "anonymous": false,
      "inputs": [
        {
          "indexed": true,
          "internalType": "bytes32",
          "name": "txHash",
          "type": "bytes32"
        }
      ],
      "name": "TransactionExpired",
      "type": "event"
    },
    {
      "anonymous": false,
      "inputs": [
        {
          "indexed": true,
          "internalType": "bytes32",
          "name": "txHash",
          "type": "bytes32"
        },
        {
          "indexed": true,
          "internalType": "address",
          "name": "executor",
          "type": "address"
        },
        {
          "indexed": false,
          "internalType": "bytes",
          "name": "returnData",
          "type": "bytes"
        }
      ],
      "name": "TransactionFailed",
      "type": "event"
    },
    {
      "anonymous": false,
      "inputs": [
        {
          "indexed": true,
          "internalType": "bytes32",
          "name": "txHash",
          "type": "bytes32"
        },
        {
          "indexed": true,
          "internalType": "address",
          "name": "proposer",
          "type": "address"
        },
        {
          "indexed": true,
          "internalType": "address",
          "name": "to",
          "type": "address"
        },
        {
          "indexed": false,
          "internalType": "uint256",
          "name": "value",
          "type": "uint256"
        },
        {
          "indexed": false,
          "internalType": "bytes",
          "name": "data",
          "type": "bytes"
        },
        {
          "indexed": false,
          "internalType": "uint48",
          "name": "expiration",
          "type": "uint48"
        },
        {
          "indexed": false,
          "internalType": "uint32",
          "name": "executionDelay",
          "type": "uint32"
        }
      ],
      "name": "TransactionProposed",
      "type": "event"
    },
    {
      "stateMutability": "payable",
      "type": "fallback"
    },
    {
      "inputs": [],
      "name": "MAX_EXECUTION_DELAY",
      "outputs": [
        {
          "internalType": "uint32",
          "name": "",
          "type": "uint32"
        }
      ],
      "stateMutability": "view",
      "type": "function"
    },
    {
      "inputs": [],
      "name": "MAX_MODULES",
      "outputs": [
        {
          "internalType": "uint256",
          "name": "",
          "type": "uint256"
        }
      ],
      "stateMutability": "view",
      "type": "function"
    },
    {
      "inputs": [],
      "name": "MAX_OWNERS",
      "outputs": [
        {
          "internalType": "uint256",
          "name": "",
          "type": "uint256"
        }
      ],
      "stateMutability": "view",
      "type": "function"
    },
    {
      "inputs": [
        {
          "internalType": "address",
          "name": "target",
          "type": "address"
        }
      ],
      "name": "addDelegatecallTarget",
      "outputs": [],
      "stateMutability": "nonpayable",
      "type": "function"
    },
    {
      "inputs": [
        {
          "internalType": "address",
          "name": "owner",
          "type": "address"
        }
      ],
      "name": "addOwner",
      "outputs": [],
      "stateMutability": "nonpayable",
      "type": "function"
    },
    {
      "inputs": [
        {
          "internalType": "bytes32",
          "name": "txHash",
          "type": "bytes32"
        }
      ],
      "name": "approveAndExecute",
      "outputs": [
        {
          "internalType": "bool",
          "name": "executed",
          "type": "bool"
        }
      ],
      "stateMutability": "nonpayable",
      "type": "function"
    },
    {
      "inputs": [
        {
          "internalType": "bytes32",
          "name": "txHash",
          "type": "bytes32"
        }
      ],
      "name": "approveTransaction",
      "outputs": [],
      "stateMutability": "nonpayable",
      "type": "function"
    },
    {
      "inputs": [
        {
          "internalType": "bytes32",
          "name": "txHash",
          "type": "bytes32"
        }
      ],
      "name": "cancelByConsensus",
      "outputs": [],
      "stateMutability": "nonpayable",
      "type": "function"
    },
    {
      "inputs": [
        {
          "internalType": "bytes32",
          "name": "txHash",
          "type": "bytes32"
        }
      ],
      "name": "cancelTransaction",
      "outputs": [],
      "stateMutability": "nonpayable",
      "type": "function"
    },
    {
      "inputs": [
        {
          "internalType": "uint256",
          "name": "_threshold",
          "type": "uint256"
        }
      ],
      "name": "changeThreshold",
      "outputs": [],
      "stateMutability": "nonpayable",
      "type": "function"
    },
    {
      "inputs": [
        {
          "internalType": "address",
          "name": "",
          "type": "address"
        }
      ],
      "name": "delegatecallAllowed",
      "outputs": [
        {
          "internalType": "bool",
          "name": "",
          "type": "bool"
        }
      ],
      "stateMutability": "view",
      "type": "function"
    },
    {
      "inputs": [
        {
          "internalType": "address",
          "name": "prevModule",
          "type": "address"
        },
        {
          "internalType": "address",
          "name": "module",
          "type": "address"
        }
      ],
      "name": "disableModule",
      "outputs": [],
      "stateMutability": "nonpayable",
      "type": "function"
    },
    {
      "inputs": [],
      "name": "domainSeparator",
      "outputs": [
        {
          "internalType": "bytes32",
          "name": "",
          "type": "bytes32"
        }
      ],
      "stateMutability": "view",
      "type": "function"
    },
    {
      "inputs": [
        {
          "internalType": "address",
          "name": "module",
          "type": "address"
        }
      ],
      "name": "enableModule",
      "outputs": [],
      "stateMutability": "nonpayable",
      "type": "function"
    },
    {
      "inputs": [
        {
          "internalType": "bytes",
          "name": "message",
          "type": "bytes"
        }
      ],
      "name": "encodeMessageData",
      "outputs": [
        {
          "internalType": "bytes",
          "name": "",
          "type": "bytes"
        }
      ],
      "stateMutability": "view",
      "type": "function"
    },
    {
      "inputs": [
        {
          "internalType": "address",
          "name": "to",
          "type": "address"
        },
        {
          "internalType": "uint256",
          "name": "value",
          "type": "uint256"
        },
        {
          "internalType": "bytes",
          "name": "data",
          "type": "bytes"
        }
      ],
      "name": "execTransactionFromModule",
      "outputs": [
        {
          "internalType": "bool",
          "name": "success",
          "type": "bool"
        }
      ],
      "stateMutability": "nonpayable",
      "type": "function"
    },
    {
      "inputs": [
        {
          "internalType": "address",
          "name": "to",
          "type": "address"
        },
        {
          "internalType": "uint256",
          "name": "value",
          "type": "uint256"
        },
        {
          "internalType": "bytes",
          "name": "data",
          "type": "bytes"
        },
        {
          "internalType": "enum Enum.Operation",
          "name": "operation",
          "type": "uint8"
        }
      ],
      "name": "execTransactionFromModule",
      "outputs": [
        {
          "internalType": "bool",
          "name": "success",
          "type": "bool"
        }
      ],
      "stateMutability": "nonpayable",
      "type": "function"
    },
    {
      "inputs": [
        {
          "internalType": "address",
          "name": "to",
          "type": "address"
        },
        {
          "internalType": "uint256",
          "name": "value",
          "type": "uint256"
        },
        {
          "internalType": "bytes",
          "name": "data",
          "type": "bytes"
        },
        {
          "internalType": "enum Enum.Operation",
          "name": "operation",
          "type": "uint8"
        }
      ],
      "name": "execTransactionFromModuleReturnData",
      "outputs": [
        {
          "internalType": "bool",
          "name": "success",
          "type": "bool"
        },
        {
          "internalType": "bytes",
          "name": "returnData",
          "type": "bytes"
        }
      ],
      "stateMutability": "nonpayable",
      "type": "function"
    },
    {
      "inputs": [
        {
          "internalType": "bytes32",
          "name": "txHash",
          "type": "bytes32"
        }
      ],
      "name": "executeTransaction",
      "outputs": [],
      "stateMutability": "nonpayable",
      "type": "function"
    },
    {
      "inputs": [
        {
          "internalType": "bytes32",
          "name": "txHash",
          "type": "bytes32"
        }
      ],
      "name": "expireTransaction",
      "outputs": [],
      "stateMutability": "nonpayable",
      "type": "function"
    },
    {
      "inputs": [
        {
          "internalType": "bytes32",
          "name": "",
          "type": "bytes32"
        }
      ],
      "name": "expiredTxs",
      "outputs": [
        {
          "internalType": "bool",
          "name": "",
          "type": "bool"
        }
      ],
      "stateMutability": "view",
      "type": "function"
    },
    {
      "inputs": [
        {
          "internalType": "bytes",
          "name": "message",
          "type": "bytes"
        }
      ],
      "name": "getMessageHash",
      "outputs": [
        {
          "internalType": "bytes32",
          "name": "",
          "type": "bytes32"
        }
      ],
      "stateMutability": "view",
      "type": "function"
    },
    {
      "inputs": [],
      "name": "getModules",
      "outputs": [
        {
          "internalType": "address[]",
          "name": "",
          "type": "address[]"
        }
      ],
      "stateMutability": "view",
      "type": "function"
    },
    {
      "inputs": [
        {
          "internalType": "address",
          "name": "start",
          "type": "address"
        },
        {
          "internalType": "uint256",
          "name": "pageSize",
          "type": "uint256"
        }
      ],
      "name": "getModulesPaginated",
      "outputs": [
        {
          "internalType": "address[]",
          "name": "array",
          "type": "address[]"
        },
        {
          "internalType": "address",
          "name": "next",
          "type": "address"
        }
      ],
      "stateMutability": "view",
      "type": "function"
    },
    {
      "inputs": [],
      "name": "getOwnerCount",
      "outputs": [
        {
          "internalType": "uint256",
          "name": "",
          "type": "uint256"
        }
      ],
      "stateMutability": "view",
      "type": "function"
    },
    {
      "inputs": [],
      "name": "getOwners",
      "outputs": [
        {
          "internalType": "address[]",
          "name": "",
          "type": "address[]"
        }
      ],
      "stateMutability": "view",
      "type": "function"
    },
    {
      "inputs": [
        {
          "internalType": "bytes32",
          "name": "txHash",
          "type": "bytes32"
        }
      ],
      "name": "getTransaction",
      "outputs": [
        {
          "components": [
            {
              "internalType": "address",
              "name": "to",
              "type": "address"
            },
            {
              "internalType": "uint48",
              "name": "timestamp",
              "type": "uint48"
            },
            {
              "internalType": "uint48",
              "name": "expiration",
              "type": "uint48"
            },
            {
              "internalType": "address",
              "name": "proposer",
              "type": "address"
            },
            {
              "internalType": "bool",
              "name": "executed",
              "type": "bool"
            },
            {
              "internalType": "bool",
              "name": "cancelled",
              "type": "bool"
            },
            {
              "internalType": "uint48",
              "name": "approvedAt",
              "type": "uint48"
            },
            {
              "internalType": "uint32",
              "name": "executionDelay",
              "type": "uint32"
            },
            {
              "internalType": "uint256",
              "name": "value",
              "type": "uint256"
            },
            {
              "internalType": "bytes",
              "name": "data",
              "type": "bytes"
            }
          ],
          "internalType": "struct QuaiVault.Transaction",
          "name": "",
          "type": "tuple"
        }
      ],
      "stateMutability": "view",
      "type": "function"
    },
    {
      "inputs": [
        {
          "internalType": "address",
          "name": "to",
          "type": "address"
        },
        {
          "internalType": "uint256",
          "name": "value",
          "type": "uint256"
        },
        {
          "internalType": "bytes",
          "name": "data",
          "type": "bytes"
        },
        {
          "internalType": "uint256",
          "name": "_nonce",
          "type": "uint256"
        }
      ],
      "name": "getTransactionHash",
      "outputs": [
        {
          "internalType": "bytes32",
          "name": "",
          "type": "bytes32"
        }
      ],
      "stateMutability": "view",
      "type": "function"
    },
    {
      "inputs": [
        {
          "internalType": "bytes32",
          "name": "txHash",
          "type": "bytes32"
        },
        {
          "internalType": "address",
          "name": "owner",
          "type": "address"
        }
      ],
      "name": "hasApproved",
      "outputs": [
        {
          "internalType": "bool",
          "name": "",
          "type": "bool"
        }
      ],
      "stateMutability": "view",
      "type": "function"
    },
    {
      "inputs": [
        {
          "internalType": "address[]",
          "name": "_owners",
          "type": "address[]"
        },
        {
          "internalType": "uint256",
          "name": "_threshold",
          "type": "uint256"
        },
        {
          "internalType": "uint32",
          "name": "_minExecutionDelay",
          "type": "uint32"
        },
        {
          "internalType": "address[]",
          "name": "_initialModules",
          "type": "address[]"
        },
        {
          "internalType": "address[]",
          "name": "_initialDelegatecallTargets",
          "type": "address[]"
        }
      ],
      "name": "initialize",
      "outputs": [],
      "stateMutability": "nonpayable",
      "type": "function"
    },
    {
      "inputs": [
        {
          "internalType": "address",
          "name": "module",
          "type": "address"
        }
      ],
      "name": "isModuleEnabled",
      "outputs": [
        {
          "internalType": "bool",
          "name": "",
          "type": "bool"
        }
      ],
      "stateMutability": "view",
      "type": "function"
    },
    {
      "inputs": [
        {
          "internalType": "address",
          "name": "",
          "type": "address"
        }
      ],
      "name": "isOwner",
      "outputs": [
        {
          "internalType": "bool",
          "name": "",
          "type": "bool"
        }
      ],
      "stateMutability": "view",
      "type": "function"
    },
    {
      "inputs": [
        {
          "internalType": "bytes32",
          "name": "_dataHash",
          "type": "bytes32"
        },
        {
          "internalType": "bytes",
          "name": "",
          "type": "bytes"
        }
      ],
      "name": "isValidSignature",
      "outputs": [
        {
          "internalType": "bytes4",
          "name": "",
          "type": "bytes4"
        }
      ],
      "stateMutability": "view",
      "type": "function"
    },
    {
      "inputs": [],
      "name": "minExecutionDelay",
      "outputs": [
        {
          "internalType": "uint32",
          "name": "",
          "type": "uint32"
        }
      ],
      "stateMutability": "view",
      "type": "function"
    },
    {
      "inputs": [],
      "name": "moduleCount",
      "outputs": [
        {
          "internalType": "uint256",
          "name": "",
          "type": "uint256"
        }
      ],
      "stateMutability": "view",
      "type": "function"
    },
    {
      "inputs": [],
      "name": "nonce",
      "outputs": [
        {
          "internalType": "uint256",
          "name": "",
          "type": "uint256"
        }
      ],
      "stateMutability": "view",
      "type": "function"
    },
    {
      "inputs": [
        {
          "internalType": "address",
          "name": "",
          "type": "address"
        },
        {
          "internalType": "address",
          "name": "",
          "type": "address"
        },
        {
          "internalType": "uint256[]",
          "name": "",
          "type": "uint256[]"
        },
        {
          "internalType": "uint256[]",
          "name": "",
          "type": "uint256[]"
        },
        {
          "internalType": "bytes",
          "name": "",
          "type": "bytes"
        }
      ],
      "name": "onERC1155BatchReceived",
      "outputs": [
        {
          "internalType": "bytes4",
          "name": "",
          "type": "bytes4"
        }
      ],
      "stateMutability": "nonpayable",
      "type": "function"
    },
    {
      "inputs": [
        {
          "internalType": "address",
          "name": "",
          "type": "address"
        },
        {
          "internalType": "address",
          "name": "",
          "type": "address"
        },
        {
          "internalType": "uint256",
          "name": "",
          "type": "uint256"
        },
        {
          "internalType": "uint256",
          "name": "",
          "type": "uint256"
        },
        {
          "internalType": "bytes",
          "name": "",
          "type": "bytes"
        }
      ],
      "name": "onERC1155Received",
      "outputs": [
        {
          "internalType": "bytes4",
          "name": "",
          "type": "bytes4"
        }
      ],
      "stateMutability": "nonpayable",
      "type": "function"
    },
    {
      "inputs": [
        {
          "internalType": "address",
          "name": "",
          "type": "address"
        },
        {
          "internalType": "address",
          "name": "",
          "type": "address"
        },
        {
          "internalType": "uint256",
          "name": "",
          "type": "uint256"
        },
        {
          "internalType": "bytes",
          "name": "",
          "type": "bytes"
        }
      ],
      "name": "onERC721Received",
      "outputs": [
        {
          "internalType": "bytes4",
          "name": "",
          "type": "bytes4"
        }
      ],
      "stateMutability": "nonpayable",
      "type": "function"
    },
    {
      "inputs": [
        {
          "internalType": "address",
          "name": "",
          "type": "address"
        }
      ],
      "name": "ownerVersions",
      "outputs": [
        {
          "internalType": "uint256",
          "name": "",
          "type": "uint256"
        }
      ],
      "stateMutability": "view",
      "type": "function"
    },
    {
      "inputs": [
        {
          "internalType": "uint256",
          "name": "",
          "type": "uint256"
        }
      ],
      "name": "owners",
      "outputs": [
        {
          "internalType": "address",
          "name": "",
          "type": "address"
        }
      ],
      "stateMutability": "view",
      "type": "function"
    },
    {
      "inputs": [
        {
          "internalType": "address",
          "name": "to",
          "type": "address"
        },
        {
          "internalType": "uint256",
          "name": "value",
          "type": "uint256"
        },
        {
          "internalType": "bytes",
          "name": "data",
          "type": "bytes"
        },
        {
          "internalType": "uint48",
          "name": "expiration",
          "type": "uint48"
        }
      ],
      "name": "proposeTransaction",
      "outputs": [
        {
          "internalType": "bytes32",
          "name": "",
          "type": "bytes32"
        }
      ],
      "stateMutability": "nonpayable",
      "type": "function"
    },
    {
      "inputs": [
        {
          "internalType": "address",
          "name": "to",
          "type": "address"
        },
        {
          "internalType": "uint256",
          "name": "value",
          "type": "uint256"
        },
        {
          "internalType": "bytes",
          "name": "data",
          "type": "bytes"
        },
        {
          "internalType": "uint48",
          "name": "expiration",
          "type": "uint48"
        },
        {
          "internalType": "uint32",
          "name": "requestedDelay",
          "type": "uint32"
        }
      ],
      "name": "proposeTransaction",
      "outputs": [
        {
          "internalType": "bytes32",
          "name": "",
          "type": "bytes32"
        }
      ],
      "stateMutability": "nonpayable",
      "type": "function"
    },
    {
      "inputs": [
        {
          "internalType": "address",
          "name": "to",
          "type": "address"
        },
        {
          "internalType": "uint256",
          "name": "value",
          "type": "uint256"
        },
        {
          "internalType": "bytes",
          "name": "data",
          "type": "bytes"
        }
      ],
      "name": "proposeTransaction",
      "outputs": [
        {
          "internalType": "bytes32",
          "name": "",
          "type": "bytes32"
        }
      ],
      "stateMutability": "nonpayable",
      "type": "function"
    },
    {
      "inputs": [
        {
          "internalType": "address",
          "name": "target",
          "type": "address"
        }
      ],
      "name": "removeDelegatecallTarget",
      "outputs": [],
      "stateMutability": "nonpayable",
      "type": "function"
    },
    {
      "inputs": [
        {
          "internalType": "address",
          "name": "owner",
          "type": "address"
        }
      ],
      "name": "removeOwner",
      "outputs": [],
      "stateMutability": "nonpayable",
      "type": "function"
    },
    {
      "inputs": [
        {
          "internalType": "bytes32",
          "name": "txHash",
          "type": "bytes32"
        }
      ],
      "name": "revokeApproval",
      "outputs": [],
      "stateMutability": "nonpayable",
      "type": "function"
    },
    {
      "inputs": [
        {
          "internalType": "uint32",
          "name": "delay",
          "type": "uint32"
        }
      ],
      "name": "setMinExecutionDelay",
      "outputs": [],
      "stateMutability": "nonpayable",
      "type": "function"
    },
    {
      "inputs": [
        {
          "internalType": "bytes",
          "name": "data",
          "type": "bytes"
        }
      ],
      "name": "signMessage",
      "outputs": [],
      "stateMutability": "nonpayable",
      "type": "function"
    },
    {
      "inputs": [
        {
          "internalType": "bytes32",
          "name": "",
          "type": "bytes32"
        }
      ],
      "name": "signedMessages",
      "outputs": [
        {
          "internalType": "bool",
          "name": "",
          "type": "bool"
        }
      ],
      "stateMutability": "view",
      "type": "function"
    },
    {
      "inputs": [
        {
          "internalType": "bytes4",
          "name": "interfaceId",
          "type": "bytes4"
        }
      ],
      "name": "supportsInterface",
      "outputs": [
        {
          "internalType": "bool",
          "name": "",
          "type": "bool"
        }
      ],
      "stateMutability": "view",
      "type": "function"
    },
    {
      "inputs": [],
      "name": "threshold",
      "outputs": [
        {
          "internalType": "uint256",
          "name": "",
          "type": "uint256"
        }
      ],
      "stateMutability": "view",
      "type": "function"
    },
    {
      "inputs": [
        {
          "internalType": "bytes32",
          "name": "",
          "type": "bytes32"
        }
      ],
      "name": "transactions",
      "outputs": [
        {
          "internalType": "address",
          "name": "to",
          "type": "address"
        },
        {
          "internalType": "uint48",
          "name": "timestamp",
          "type": "uint48"
        },
        {
          "internalType": "uint48",
          "name": "expiration",
          "type": "uint48"
        },
        {
          "internalType": "address",
          "name": "proposer",
          "type": "address"
        },
        {
          "internalType": "bool",
          "name": "executed",
          "type": "bool"
        },
        {
          "internalType": "bool",
          "name": "cancelled",
          "type": "bool"
        },
        {
          "internalType": "uint48",
          "name": "approvedAt",
          "type": "uint48"
        },
        {
          "internalType": "uint32",
          "name": "executionDelay",
          "type": "uint32"
        },
        {
          "internalType": "uint256",
          "name": "value",
          "type": "uint256"
        },
        {
          "internalType": "bytes",
          "name": "data",
          "type": "bytes"
        }
      ],
      "stateMutability": "view",
      "type": "function"
    },
    {
      "inputs": [
        {
          "internalType": "bytes",
          "name": "data",
          "type": "bytes"
        }
      ],
      "name": "unsignMessage",
      "outputs": [],
      "stateMutability": "nonpayable",
      "type": "function"
    },
    {
      "stateMutability": "payable",
      "type": "receive"
    }
  ],
  "bytecode": "0x60806040523480156200001157600080fd5b506200001c62000022565b620000d6565b7ff0c57e16840df040f15088dc2f81fe391c3923bec73e23a9662efc9c229c6a00805468010000000000000000900460ff1615620000735760405163f92ee8a960e01b815260040160405180910390fd5b80546001600160401b0390811614620000d35780546001600160401b0319166001600160401b0390811782556040519081527fc7f505b2f371ae2175ee4913f4499e1f2633a7b5936321eed1cdaeb6115181d29060200160405180910390a15b50565b6153f180620000e66000396000f3fe6080604052600436106103595760003560e01c8063610b5925116101bb578063b98a34de116100f7578063cee0b51711610095578063ef18374a1161006f578063ef18374a14610afd578063f23a6e6114610b12578063f246857814610b57578063f698da2514610b8457610396565b8063cee0b51714610a9d578063df70ad9d14610abd578063e009cfde14610add57610396565b8063c2919181116100d1578063c291918114610a0f578063c69ed5f214610a2f578063c91304a614610a4f578063cc2f845214610a6f57610396565b8063b98a34de14610993578063bc03d280146109b3578063bc197c81146109ca57610396565b806385a5affe11610164578063a786cac91161013e578063a786cac91461090b578063affed0e014610938578063b2494df31461094e578063b2def5371461096357610396565b806385a5affe146108a95780638f4fde9f146108c9578063a0e67e2b146108e957610396565b80636a5c0628116101955780636a5c0628146108495780637065cb481461086957806370ba33391461088957610396565b8063610b5925146107d3578063642f2eaf146107f3578063694e80c31461082957610396565b80632ac8ccb61161029557806342cde4e8116102335780635229073f1161020d5780635229073f146107405780635ae6bd371461076e5780635e90852d1461079e5780635f1e8c1b146107be57610396565b806342cde4e8146106dd578063468721a7146106f35780634aae13ca1461071357610396565b8063334f7ac51161026f578063334f7ac51461064557806339f9658c1461065b5780633bf8ee9c1461068b5780633dbc36b9146106bd57610396565b80632ac8ccb6146105d55780632d9ad53d146105f55780632f54bf6e1461061557610396565b8063150b7a0211610302578063173825d9116102dc578063173825d9146105555780631a8f57de146105755780632011ee8f1461059557806323cdc3f1146105b557610396565b8063150b7a02146104d157806315ba5ae7146105155780631626ba7e1461053557610396565b80630b8bb146116103335780630b8bb1461461047a5780630d7216d11461048f57806314e1b0be146104b157610396565b806301ffc9a7146103df578063025e7c27146104145780630a1028c41461044c57610396565b366103965760405134815233907f88a5966d370b9919b20f3e2c13ff65706f196a4e32cc2c12bf57088f88525874906020015b60405180910390a2005b341580156103a357503615155b156103ad57600080fd5b60405134815233907f88a5966d370b9919b20f3e2c13ff65706f196a4e32cc2c12bf57088f885258749060200161038c565b3480156103eb57600080fd5b506103ff6103fa3660046144ff565b610c63565b60405190151581526020015b60405180910390f35b34801561042057600080fd5b5061043461042f366004614529565b610ca9565b6040516001600160a01b03909116815260200161040b565b34801561045857600080fd5b5061046c610467366004614607565b610cd3565b60405190815260200161040b565b34801561048657600080fd5b5061046c601481565b34801561049b57600080fd5b506104af6104aa366004614659565b610cec565b005b3480156104bd57600080fd5b506103ff6104cc366004614529565b610d18565b3480156104dd57600080fd5b506104fc6104ec366004614676565b630a85bd0160e11b949350505050565b6040516001600160e01b0319909116815260200161040b565b34801561052157600080fd5b506104af610530366004614529565b611006565b34801561054157600080fd5b506104fc610550366004614724565b611195565b34801561056157600080fd5b506104af610570366004614659565b611200565b34801561058157600080fd5b5061046c61059036600461478b565b611229565b3480156105a157600080fd5b506104af6105b0366004614529565b611274565b3480156105c157600080fd5b506103ff6105d03660046147fc565b6113ff565b3480156105e157600080fd5b5061046c6105f036600461483e565b61143a565b34801561060157600080fd5b506103ff610610366004614659565b611483565b34801561062157600080fd5b506103ff610630366004614659565b60006020819052908152604090205460ff1681565b34801561065157600080fd5b5061046c600a5481565b34801561066757600080fd5b506103ff610676366004614529565b60096020526000908152604090205460ff1681565b34801561069757600080fd5b50600b546106a89063ffffffff1681565b60405163ffffffff909116815260200161040b565b3480156106c957600080fd5b506103ff6106d83660046148c2565b6114bb565b3480156106e957600080fd5b5061046c60025481565b3480156106ff57600080fd5b506103ff61070e36600461491e565b6114c7565b34801561071f57600080fd5b5061073361072e366004614529565b611739565b60405161040b91906149e6565b34801561074c57600080fd5b5061076061075b36600461491e565b6118d9565b60405161040b929190614ab5565b34801561077a57600080fd5b506103ff610789366004614529565b60086020526000908152604090205460ff1681565b3480156107aa57600080fd5b5061046c6107b93660046148c2565b611b54565b3480156107ca57600080fd5b5061046c603281565b3480156107df57600080fd5b506104af6107ee366004614659565b611b93565b3480156107ff57600080fd5b5061081361080e366004614529565b611bbc565b60405161040b9a99989796959493929190614ad0565b34801561083557600080fd5b506104af610844366004614529565b611cc3565b34801561085557600080fd5b506104af610864366004614b52565b611cec565b34801561087557600080fd5b506104af610884366004614659565b611d4f565b34801561089557600080fd5b506104af6108a4366004614529565b611d78565b3480156108b557600080fd5b506104af6108c4366004614b52565b611f06565b3480156108d557600080fd5b506104af6108e4366004614529565b611f65565b3480156108f557600080fd5b506108fe6121bf565b60405161040b9190614bd9565b34801561091757600080fd5b5061092b610926366004614607565b612221565b60405161040b9190614bec565b34801561094457600080fd5b5061046c60035481565b34801561095a57600080fd5b506108fe6123f2565b34801561096f57600080fd5b506103ff61097e366004614659565b600c6020526000908152604090205460ff1681565b34801561099f57600080fd5b5061046c6109ae366004614bff565b612409565b3480156109bf57600080fd5b506106a862278d0081565b3480156109d657600080fd5b506104fc6109e5366004614cf1565b7fbc197c810000000000000000000000000000000000000000000000000000000095945050505050565b348015610a1b57600080fd5b506104af610a2a366004614659565b612449565b348015610a3b57600080fd5b506104af610a4a366004614529565b612472565b348015610a5b57600080fd5b506104af610a6a366004614e07565b6126ba565b348015610a7b57600080fd5b50610a8f610a8a366004614ea1565b612acc565b60405161040b929190614ecd565b348015610aa957600080fd5b506104af610ab8366004614ef8565b612ae6565b348015610ac957600080fd5b506104af610ad8366004614529565b612b0f565b348015610ae957600080fd5b506104af610af8366004614f15565b612b38565b348015610b0957600080fd5b5060015461046c565b348015610b1e57600080fd5b506104fc610b2d366004614f43565b7ff23a6e610000000000000000000000000000000000000000000000000000000095945050505050565b348015610b6357600080fd5b5061046c610b72366004614659565b60066020526000908152604090205481565b348015610b9057600080fd5b506040805180820182526009815268145d585a55985d5b1d60ba1b6020918201528151808301835260018152603160f81b9082015281517f8b73c3c69bb8fe3d512ecc4cf759cc79239f7b179b0ffacaa9a75d522b39400f818301527f5596858500dac318ddda8f5ba792b7c4998f2950b3d0dfb38e6193ae219cc682818401527fc89efdaa54c0f20c7adf612882df0950f5a951637e0307cdcb4c672f298b8bc660608201524660808201523060a0808301919091528351808303909101815260c0909101909252815191012061046c565b60006001600160e01b03198216630a85bd0160e11b1480610c9457506001600160e01b03198216630b135d3f60e11b145b80610ca35750610ca382612b62565b92915050565b60018181548110610cb957600080fd5b6000918252602090912001546001600160a01b0316905081565b6000610cde82612221565b805190602001209050919050565b333014610d0c5760405163029a949d60e31b815260040160405180910390fd5b610d1581612bc9565b50565b3360009081526020819052604081205460ff16610d4857604051631dd523ff60e31b815260040160405180910390fd5b60008281526004602052604090205482906001600160a01b0316610d7f576040516315147c4560e21b815260040160405180910390fd5b6000838152600460205260409020600101548390600160a01b900460ff1615610dbb5760405163db5e659b60e01b815260040160405180910390fd5b6000848152600460205260409020600101548490600160a81b900460ff1615610df75760405163d11ba1b760e01b815260040160405180910390fd5b610dff612c9a565b336000818152600660209081526040808320548984526005835281842094845293909152902054600190910114610e8557336000818152600660209081526040808320548984526005835281842085855290925280832060019092019091555187917f81c6ac0dfc682cef290187a357858d8f72568d0c818cd30303f079c4ed6294a791a35b600085815260046020526040812090610e9d87612cfd565b6001830154909150600160b01b900465ffffffffffff16158015610ec357506002548110155b15610f495760018201805465ffffffffffff60b01b1916600160b01b4265ffffffffffff9081168202929092179283905560408051918404909216808252600160e01b90930463ffffffff16909201602083018190529189917fd7c86a7b8c7fb1ac5af3b4738fa80802c4da772d3d81370eb109092cfcfb9671910160405180910390a2505b600254811015610f5e57600095505050610fd5565b81546001600160a01b03163014801581610f8857506001830154600160e01b900463ffffffff1615155b15610fc3576001830154600160e01b810463ffffffff16600160b01b90910465ffffffffffff1601421015610fc35760009650505050610fd5565b610fcd8884612d85565b600196505050505b610ffe60017f9b779b17422d0df92223018b32b4d1fa46e071723d6817e2486d003becc55f0055565b505050919050565b3360009081526020819052604090205460ff1661103657604051631dd523ff60e31b815260040160405180910390fd5b60008181526004602052604090205481906001600160a01b031661106d576040516315147c4560e21b815260040160405180910390fd5b6000828152600460205260409020600101548290600160a01b900460ff16156110a95760405163db5e659b60e01b815260040160405180910390fd5b6000838152600460205260409020600101548390600160a81b900460ff16156110e55760405163d11ba1b760e01b815260040160405180910390fd5b336000818152600660209081526040808320548884526005835281842094845293909152902054600190910114611148576040517fc19f17a900000000000000000000000000000000000000000000000000000000815260040160405180910390fd5b6000848152600560209081526040808320338452909152812055604051339085907f9084272e66711608d3cf7cdf3ebfed05ea6797bb8146655a7b20a3956d19ac2a90600090a350505050565b6000806111c2856040516020016111ae91815260200190565b604051602081830303815290604052610cd3565b60008181526008602052604090205490915060ff16156111ec5750630b135d3f60e11b90506111f9565b506001600160e01b031990505b9392505050565b3330146112205760405163029a949d60e31b815260040160405180910390fd5b610d15816130c7565b3360009081526020819052604081205460ff1661125957604051631dd523ff60e31b815260040160405180910390fd5b6112688686868686600061329a565b90505b95945050505050565b60008181526004602052604090205481906001600160a01b03166112ab576040516315147c4560e21b815260040160405180910390fd5b6000828152600460205260409020600101548290600160a01b900460ff16156112e75760405163db5e659b60e01b815260040160405180910390fd5b6000838152600460205260409020600101548390600160a81b900460ff16156113235760405163d11ba1b760e01b815260040160405180910390fd5b60008481526004602052604090208054600160d01b900465ffffffffffff16158061135e57508054600160d01b900465ffffffffffff164211155b15611395576040517f3e80cc0700000000000000000000000000000000000000000000000000000000815260040160405180910390fd5b6001818101805460ff60a81b1916600160a81b1790556000868152600960205260409020805460ff191690911790556113cd85613690565b60405185907f400960d8a46b4c79d2c8717d18dbaa1cc24994b4b2de1b0742cfb4c5f3552b7090600090a25050505050565b6001600160a01b03811660008181526006602090815260408083205486845260058352818420948452939091528120549091600101146111f9565b3360009081526020819052604081205460ff1661146a57604051631dd523ff60e31b815260040160405180910390fd5b61147887878787878761329a565b979650505050505050565b60006001600160a01b038216600114801590610ca35750506001600160a01b0390811660009081526007602052604090205416151590565b600061126b8585858560005b60006114d233611483565b6114ef5760405163e8b788ef60e01b815260040160405180910390fd5b6114f7612c9a565b6001600160a01b03861661151e57604051635209852960e01b815260040160405180910390fd5b600182600181111561153257611532614fac565b0361164b576001600160a01b0386166000908152600c602052604090205460ff16611580576040516317645e7d60e21b81526001600160a01b03871660048201526024015b60405180910390fd5b7f360894a13ba1a3210667c828492db98dca3e2076cc3735a920a3ca505d382bbc546040516001600160a01b038816906115bd9087908790614fc2565b600060405180830381855af49150503d80600081146115f8576040519150601f19603f3d011682016040523d82523d6000602084013e6115fd565b606091505b50507f360894a13ba1a3210667c828492db98dca3e2076cc3735a920a3ca505d382bbc54909250818114611644576040516348d4c8dd60e11b815260040160405180910390fd5b50506116ae565b856001600160a01b0316858585604051611666929190614fc2565b60006040518083038185875af1925050503d80600081146116a3576040519150601f19603f3d011682016040523d82523d6000602084013e6116a8565b606091505b50909150505b80156116e45760405133907f6895c13664aa4f67288b25d7a21d7aaa34916e355fb9b6fae0a139a9085becb890600090a2611710565b60405133907facd2c8702804128fdb0db2bb49f6d127dd0181c13fd45dbfe16de0930e2bd37590600090a25b61126b60017f9b779b17422d0df92223018b32b4d1fa46e071723d6817e2486d003becc55f0055565b604080516101408101825260008082526020820181905291810182905260608082018390526080820183905260a0820183905260c0820183905260e0820183905261010082019290925261012081019190915260008281526004602090815260409182902082516101408101845281546001600160a01b038082168352600160a01b80830465ffffffffffff90811696850196909652600160d01b90920485169583019590955260018301549485166060830152840460ff90811615156080830152600160a81b850416151560a0820152600160b01b840490921660c0830152600160e01b90920463ffffffff1660e082015260028201546101008201526003820180549192916101208401919061185090614fd2565b80601f016020809104026020016040519081016040528092919081815260200182805461187c90614fd2565b80156118c95780601f1061189e576101008083540402835291602001916118c9565b820191906000526020600020905b8154815290600101906020018083116118ac57829003601f168201915b5050505050815250509050919050565b600060606118e633611483565b6119035760405163e8b788ef60e01b815260040160405180910390fd5b61190b612c9a565b6001600160a01b03871661193257604051635209852960e01b815260040160405180910390fd5b600183600181111561194657611946614fac565b03611a5b576001600160a01b0387166000908152600c602052604090205460ff1661198f576040516317645e7d60e21b81526001600160a01b0388166004820152602401611577565b7f360894a13ba1a3210667c828492db98dca3e2076cc3735a920a3ca505d382bbc546040516001600160a01b038916906119cc9088908890614fc2565b600060405180830381855af49150503d8060008114611a07576040519150601f19603f3d011682016040523d82523d6000602084013e611a0c565b606091505b507f360894a13ba1a3210667c828492db98dca3e2076cc3735a920a3ca505d382bbc549194509250818114611a54576040516348d4c8dd60e11b815260040160405180910390fd5b5050611abf565b866001600160a01b0316868686604051611a76929190614fc2565b60006040518083038185875af1925050503d8060008114611ab3576040519150601f19603f3d011682016040523d82523d6000602084013e611ab8565b606091505b5090925090505b8115611af55760405133907f6895c13664aa4f67288b25d7a21d7aaa34916e355fb9b6fae0a139a9085becb890600090a2611b21565b60405133907facd2c8702804128fdb0db2bb49f6d127dd0181c13fd45dbfe16de0930e2bd37590600090a25b611b4a60017f9b779b17422d0df92223018b32b4d1fa46e071723d6817e2486d003becc55f0055565b9550959350505050565b3360009081526020819052604081205460ff16611b8457604051631dd523ff60e31b815260040160405180910390fd5b61126b8585858560008061329a565b333014611bb35760405163029a949d60e31b815260040160405180910390fd5b610d15816136f0565b60046020526000908152604090208054600182015460028301546003840180546001600160a01b0380861696600160a01b80880465ffffffffffff90811698600160d01b90048116979384169691840460ff90811696600160a81b860490911695600160b01b860490921694600160e01b900463ffffffff169391611c4090614fd2565b80601f0160208091040260200160405190810160405280929190818152602001828054611c6c90614fd2565b8015611cb95780601f10611c8e57610100808354040283529160200191611cb9565b820191906000526020600020905b815481529060010190602001808311611c9c57829003601f168201915b505050505090508a565b333014611ce35760405163029a949d60e31b815260040160405180910390fd5b610d158161385c565b333014611d0c5760405163029a949d60e31b815260040160405180910390fd5b611d4b82828080601f0160208091040260200160405190810160405280939291908181526020018383808284376000920191909152506138c392505050565b5050565b333014611d6f5760405163029a949d60e31b815260040160405180910390fd5b610d158161396d565b3360009081526020819052604090205460ff16611da857604051631dd523ff60e31b815260040160405180910390fd5b60008181526004602052604090205481906001600160a01b0316611ddf576040516315147c4560e21b815260040160405180910390fd5b6000828152600460205260409020600101548290600160a01b900460ff1615611e1b5760405163db5e659b60e01b815260040160405180910390fd5b6000838152600460205260409020600101548390600160a81b900460ff1615611e575760405163d11ba1b760e01b815260040160405180910390fd5b600084815260046020526040902060018101546001600160a01b03163314611eab576040517f7d1b73b900000000000000000000000000000000000000000000000000000000815260040160405180910390fd5b6001810154600160b01b900465ffffffffffff1615611ef6576040517f8f21866900000000000000000000000000000000000000000000000000000000815260040160405180910390fd5b611eff85613ad7565b5050505050565b333014611f265760405163029a949d60e31b815260040160405180910390fd5b611d4b82828080601f016020809104026020016040519081016040528093929190818152602001838380828437600092019190915250613b3292505050565b3360009081526020819052604090205460ff16611f9557604051631dd523ff60e31b815260040160405180910390fd5b60008181526004602052604090205481906001600160a01b0316611fcc576040516315147c4560e21b815260040160405180910390fd5b6000828152600460205260409020600101548290600160a01b900460ff16156120085760405163db5e659b60e01b815260040160405180910390fd5b6000838152600460205260409020600101548390600160a81b900460ff16156120445760405163d11ba1b760e01b815260040160405180910390fd5b33600081815260066020908152604080832054888452600583528184209484529390915290205490036001016120a6576040517f101f817a00000000000000000000000000000000000000000000000000000000815260040160405180910390fd5b336000818152600660209081526040808320548884526005835281842085855290925280832060019092019091555186917f81c6ac0dfc682cef290187a357858d8f72568d0c818cd30303f079c4ed6294a791a360008481526004602052604090206001810154600160b01b900465ffffffffffff16158015612133575060025461213086612cfd565b10155b15611eff5760018101805465ffffffffffff60b01b1916600160b01b4265ffffffffffff9081168202929092179283905560408051918404909216808252600160e01b90930463ffffffff16909201602083018190529187917fd7c86a7b8c7fb1ac5af3b4738fa80802c4da772d3d81370eb109092cfcfb9671910160405180910390a2505050505050565b6060600180548060200260200160405190810160405280929190818152602001828054801561221757602002820191906000526020600020905b81546001600160a01b031681526001909101906020018083116121f9575b5050505050905090565b606060007ff52a582c2f81c7cb6e9838e1810062173a8ca384191d03447cf053bce0a90ccf8380519060200120604051602001612268929190918252602082015260400190565b60408051601f19818403018152919052805160209091012090507f19000000000000000000000000000000000000000000000000000000000000007f01000000000000000000000000000000000000000000000000000000000000006123976040805180820182526009815268145d585a55985d5b1d60ba1b6020918201528151808301835260018152603160f81b9082015281517f8b73c3c69bb8fe3d512ecc4cf759cc79239f7b179b0ffacaa9a75d522b39400f818301527f5596858500dac318ddda8f5ba792b7c4998f2950b3d0dfb38e6193ae219cc682818401527fc89efdaa54c0f20c7adf612882df0950f5a951637e0307cdcb4c672f298b8bc660608201524660808201523060a0808301919091528351808303909101815260c0909101909252815191012090565b6040517fff000000000000000000000000000000000000000000000000000000000000009384166020820152929091166021830152602282015260428101829052606201604051602081830303815290604052915050919050565b6060600061240260016032613b8b565b5092915050565b6000308686868686466040516020016124289796959493929190615035565b60405160208183030381529060405280519060200120905095945050505050565b3330146124695760405163029a949d60e31b815260040160405180910390fd5b610d1581613c7d565b3360009081526020819052604090205460ff166124a257604051631dd523ff60e31b815260040160405180910390fd5b60008181526004602052604090205481906001600160a01b03166124d9576040516315147c4560e21b815260040160405180910390fd5b6000828152600460205260409020600101548290600160a01b900460ff16156125155760405163db5e659b60e01b815260040160405180910390fd5b6000838152600460205260409020600101548390600160a81b900460ff16156125515760405163d11ba1b760e01b815260040160405180910390fd5b612559612c9a565b600084815260046020526040902060025461257386612cfd565b10156125ab576040517f24bcdbea00000000000000000000000000000000000000000000000000000000815260040160405180910390fd5b80546001600160a01b031630148015816125d557506001820154600160e01b900463ffffffff1615155b80156125f257506001820154600160b01b900465ffffffffffff16155b1561267e5760018201805465ffffffffffff60b01b1916600160b01b4265ffffffffffff9081168202929092179283905560408051918404909216808252600160e01b90930463ffffffff16909201602083018190529188917fd7c86a7b8c7fb1ac5af3b4738fa80802c4da772d3d81370eb109092cfcfb9671910160405180910390a250505061268b565b6126888683612d85565b50505b6126b460017f9b779b17422d0df92223018b32b4d1fa46e071723d6817e2486d003becc55f0055565b50505050565b60006126c4613d23565b805490915060ff68010000000000000000820416159067ffffffffffffffff166000811580156126f15750825b905060008267ffffffffffffffff16600114801561270e5750303b155b90508115801561271c575080155b15612753576040517ff92ee8a900000000000000000000000000000000000000000000000000000000815260040160405180910390fd5b845467ffffffffffffffff19166001178555831561278757845468ff00000000000000001916680100000000000000001785555b89516000036127c2576040517f401b9c4b00000000000000000000000000000000000000000000000000000000815260040160405180910390fd5b60148a5111156127fe576040517f5e1459cc00000000000000000000000000000000000000000000000000000000815260040160405180910390fd5b88158061280b5750895189115b156128295760405163aabd5a0960e01b815260040160405180910390fd5b612831613d4c565b612839613d5e565b612841613d5e565b60005b8a518110156129855760008b82815181106128615761286161507e565b6020026020010151905060006001600160a01b0316816001600160a01b0316148061289457506001600160a01b03811630145b806128a857506001600160a01b0381166001145b156128c657604051633649397d60e21b815260040160405180910390fd5b6001600160a01b03811660009081526020819052604090205460ff1615612919576040517fbc7bc45400000000000000000000000000000000000000000000000000000000815260040160405180910390fd5b6001600160a01b03166000818152602081905260408120805460ff1916600190811790915580548082018255918190527fb10e2d527612073b26eecdfd717e6a320cf44b4afac2b0732d9fcbe2b7fa0cf690910180546001600160a01b03191690921790915501612844565b50600289905562278d0063ffffffff891611156129b5576040516320f7aedb60e11b815260040160405180910390fd5b600b805463ffffffff191663ffffffff8a161790556001600081815260076020527fb39221ace053465ec3453ce2b36430bd138b997ecea25c1043da0c366812b82880546001600160a01b0319169092179091555b8751811015612a3d57612a35888281518110612a2857612a2861507e565b60200260200101516136f0565b600101612a0a565b5060005b8651811015612a7457612a6c878281518110612a5f57612a5f61507e565b6020026020010151612bc9565b600101612a41565b508315612ac057845468ff000000000000000019168555604051600181527fc7f505b2f371ae2175ee4913f4499e1f2633a7b5936321eed1cdaeb6115181d29060200160405180910390a15b50505050505050505050565b60606000612ada8484613b8b565b915091505b9250929050565b333014612b065760405163029a949d60e31b815260040160405180910390fd5b610d1581613d66565b333014612b2f5760405163029a949d60e31b815260040160405180910390fd5b610d1581613deb565b333014612b585760405163029a949d60e31b815260040160405180910390fd5b611d4b8282613e84565b60006001600160e01b031982167f4e2312e0000000000000000000000000000000000000000000000000000000001480610ca357507f01ffc9a7000000000000000000000000000000000000000000000000000000006001600160e01b0319831614610ca3565b6001600160a01b038116612bf057604051635209852960e01b815260040160405180910390fd5b6001600160a01b0381166000908152600c602052604090205460ff1615612c4e576040517f472f1ed50000000000000000000000000000000000000000000000000000000081526001600160a01b0382166004820152602401611577565b6001600160a01b0381166000818152600c6020526040808220805460ff19166001179055517f3c26b6c23a857566b44e96cabcad89d559c8075140b25bc1fa15cd9bed239b949190a250565b7f9b779b17422d0df92223018b32b4d1fa46e071723d6817e2486d003becc55f00805460011901612cf7576040517f3ee5aeb500000000000000000000000000000000000000000000000000000000815260040160405180910390fd5b60029055565b600154600090815b81811015612d7e57612d638460018381548110612d2457612d2461507e565b60009182526020808320909101546001600160a01b03168083526006825260408084205494845260058352808420918452915290205460019091011490565b15612d765782612d7281615094565b9350505b600101612d05565b5050919050565b8054600160d01b900465ffffffffffff1615801590612db357508054600160d01b900465ffffffffffff1642115b15612dea576040517f93c15bed00000000000000000000000000000000000000000000000000000000815260040160405180910390fd5b80546001600160a01b03163014801581612e1457506001820154600160e01b900463ffffffff1615155b15612e7b576001820154600160e01b810463ffffffff16600160b01b90910465ffffffffffff160142811115612e79576040517f810c4f2a00000000000000000000000000000000000000000000000000000000815260048101829052602401611577565b505b6001820180547fffffffffffffffffffffff00ffffffffffffffffffffffffffffffffffffffff16600160a01b1790558015612faf57600282015415612ed457604051638695753560e01b815260040160405180910390fd5b81546002830154600384018054612f7d936001600160a01b0316929190612efa90614fd2565b80601f0160208091040260200160405190810160405280929190818152602001828054612f2690614fd2565b8015612f735780601f10612f4857610100808354040283529160200191612f73565b820191906000526020600020905b815481529060010190602001808311612f5657829003601f168201915b5050505050613fa7565b604051339084907fd44017dbb47d3ccb9e2b2348a386b3faf150406ac63038abd5533ce95dbcc47190600090a3505050565b8154600283015460405160009283926001600160a01b0390911691612fd89060038801906150bb565b60006040518083038185875af1925050503d8060008114613015576040519150601f19603f3d011682016040523d82523d6000602084013e61301a565b606091505b5091509150811561305757604051339086907fd44017dbb47d3ccb9e2b2348a386b3faf150406ac63038abd5533ce95dbcc47190600090a3611eff565b336001600160a01b0316857fd263be7827e53afcfbb86ea9509a695c90c8978357516dd993b93dae3b2c5e7e836040516130919190614bec565b60405180910390a350505b505050565b60017f9b779b17422d0df92223018b32b4d1fa46e071723d6817e2486d003becc55f0055565b6001600160a01b03811660009081526020819052604090205460ff1661310057604051631dd523ff60e31b815260040160405180910390fd5b60015460025460001982011015613143576040517f8c80b02a00000000000000000000000000000000000000000000000000000000815260040160405180910390fd5b6001600160a01b038216600090815260208181526040808320805460ff1916905560069091528120805460010190555b8181101561326157826001600160a01b0316600182815481106131985761319861507e565b6000918252602090912001546001600160a01b031603613259576001808303815481106131c7576131c761507e565b600091825260209091200154600180546001600160a01b0390921691839081106131f3576131f361507e565b9060005260206000200160006101000a8154816001600160a01b0302191690836001600160a01b03160217905550600180548061323257613232615131565b600082815260209020810160001990810180546001600160a01b0319169055019055613261565b600101613173565b506040516001600160a01b038316907f58619076adf5bb0943d100ef88d52d7c3fd691b19d3a9071b555b651fbf418da90600090a25050565b60006001600160a01b0387166132c357604051635209852960e01b815260040160405180910390fd5b6001600160a01b038716301480156132db5750600086115b156132f957604051638695753560e01b815260040160405180910390fd5b60006001600160a01b038816301461333257600b5463ffffffff9081169084161161332c57600b5463ffffffff16613335565b82613335565b60005b905065ffffffffffff841615613394574263ffffffff82160165ffffffffffff85168110613392576040517fdc9647b500000000000000000000000000000000000000000000000000000000815260048101829052602401611577565b505b60006133a589898989600354612409565b6000818152600460205260409020549091506001600160a01b0316156133f7576040517f65918e3200000000000000000000000000000000000000000000000000000000815260040160405180910390fd5b6040518061014001604052808a6001600160a01b031681526020014265ffffffffffff1681526020018665ffffffffffff168152602001336001600160a01b03168152602001600015158152602001600015158152602001600065ffffffffffff1681526020018363ffffffff16815260200189815260200188888080601f01602080910402602001604051908101604052809392919081815260200183838082843760009201829052509390945250508381526004602090815260409182902084518154928601519386015165ffffffffffff908116600160d01b0279ffffffffffffffffffffffffffffffffffffffffffffffffffff958216600160a01b9081027fffffffffffff00000000000000000000000000000000000000000000000000009096166001600160a01b039485161795909517959095169490941782556060860151600183018054608089015160a08a015160c08b015160e08c015163ffffffff16600160e01b027bffffffffffffffffffffffffffffffffffffffffffffffffffffffff91909a16600160b01b0265ffffffffffff60b01b19921515600160a81b02929092167fffffffff00000000000000ffffffffffffffffffffffffffffffffffffffffff9315159099027fffffffffffffffffffffff00000000000000000000000000000000000000000090941695909616949094179190911716949094171716929092179055610100830151600282015561012083015190915060038201906136299082615197565b5050600380546001019055506040516001600160a01b038a1690339083907f190f750d63a1321d291c8cf63adc4515f2e1a90440b7f7bbccdce9839522a55f9061367c908d908d908d908d908b90615257565b60405180910390a498975050505050505050565b60015460005b8181101561309c57600083815260056020526040812060018054839190859081106136c3576136c361507e565b60009182526020808320909101546001600160a01b03168352820192909252604001902055600101613696565b6001600160a01b038116158061370f57506001600160a01b0381166001145b1561373857604051635c93ff2f60e11b81526001600160a01b0382166004820152602401611577565b6001600160a01b03818116600090815260076020526040902054161561378a576040517f3778939500000000000000000000000000000000000000000000000000000000815260040160405180910390fd5b6032600a54106137c6576040517f7feb5f3700000000000000000000000000000000000000000000000000000000815260040160405180910390fd5b60076020527fb39221ace053465ec3453ce2b36430bd138b997ecea25c1043da0c366812b82880546001600160a01b03838116600081815260408082208054949095166001600160a01b031994851617909455600180825285549093168217909455600a8054909201909155905190917fecdf3a3effea5783a3c4c2140e677577666428d44ed9d474a0b3a4c9943f844091a250565b80158061386a575060015481115b156138885760405163aabd5a0960e01b815260040160405180910390fd5b60028190556040518181527f6c4ce60fd690e1216286a10b875c5662555f10774484e58142cedd7a90781baa9060200160405180910390a150565b60006138ce82610cd3565b60008181526008602052604090205490915060ff16613919576040517f58a811d900000000000000000000000000000000000000000000000000000000815260040160405180910390fd5b60008181526008602052604090819020805460ff191690555181907fd833b3eda5b94a1b180b07cccedd6af28033d4a7c9b661b7025fd701b80fd54e90613961908590614bec565b60405180910390a25050565b6001600160a01b038116158061398b57506001600160a01b03811630145b8061399f57506001600160a01b0381166001145b156139bd57604051633649397d60e21b815260040160405180910390fd5b6001600160a01b03811660009081526020819052604090205460ff1615613a10576040517f4b9fc0de00000000000000000000000000000000000000000000000000000000815260040160405180910390fd5b600154601411613a4c576040517f2414149d00000000000000000000000000000000000000000000000000000000815260040160405180910390fd5b6001600160a01b038116600081815260208190526040808220805460ff19166001908117909155805480820182559083527fb10e2d527612073b26eecdfd717e6a320cf44b4afac2b0732d9fcbe2b7fa0cf60180546001600160a01b03191684179055517f994a936646fe87ffe4f1e469d3d6aa417d6b855598397f323de5b449f765f0c39190a250565b6000818152600460205260409020600101805460ff60a81b1916600160a81b179055613b0281613690565b604051339082907f0a94f6cf3e473cb72e765b24d1365bfcbef8d31a73215bb27e50df39757f578a90600090a350565b6000613b3d82610cd3565b60008181526008602052604090819020805460ff191660011790555190915081907ff63af6681ddedf69284753e4066f3afe0533be9b1eacb3a26dcd1c878a8960b690613961908590614bec565b606060008267ffffffffffffffff811115613ba857613ba8614542565b604051908082528060200260200182016040528015613bd1578160200160208202803683370190505b506001600160a01b03808616600090815260076020526040812054929450911691505b6001600160a01b03821615801590613c1657506001600160a01b038216600114155b8015613c2157508381105b15613c725781838281518110613c3957613c3961507e565b6001600160a01b039283166020918202929092018101919091529281166000908152600790935260409092205490911690600101613bf4565b808352509250929050565b6001600160a01b0381166000908152600c602052604090205460ff16613cda576040517f9bb6b38f0000000000000000000000000000000000000000000000000000000081526001600160a01b0382166004820152602401611577565b6001600160a01b0381166000818152600c6020526040808220805460ff19169055517f3304a241330acf992842de4d118751207a86ff698b9fc370a82e07410e0480439190a250565b6000807ff0c57e16840df040f15088dc2f81fe391c3923bec73e23a9662efc9c229c6a00610ca3565b613d5461441d565b613d5c61445b565b565b613d5c61441d565b62278d0063ffffffff82161115613d90576040516320f7aedb60e11b815260040160405180910390fd5b600b805463ffffffff83811663ffffffff1983168117909355604080519190921680825260208201939093527fda723f5b2ae3aeec0e4a7c212515602b50bdf86abee357226891ae0ac86a7631910160405180910390a15050565b600081815260046020526040902080546001600160a01b0316613e21576040516315147c4560e21b815260040160405180910390fd5b6001810154600160a01b900460ff1615613e4e5760405163db5e659b60e01b815260040160405180910390fd5b6001810154600160a81b900460ff1615613e7b5760405163d11ba1b760e01b815260040160405180910390fd5b611d4b82613ad7565b6001600160a01b0381161580613ea357506001600160a01b0381166001145b15613ecc57604051635c93ff2f60e11b81526001600160a01b0382166004820152602401611577565b6001600160a01b03828116600090815260076020526040902054811690821614613f2d576040517f22a563630000000000000000000000000000000000000000000000000000000081526001600160a01b0383166004820152602401611577565b6001600160a01b03818116600081815260076020526040808220805487861684528284208054919096166001600160a01b0319918216179095558383528054909416909355600a8054600019019055915190917faab4fa2b463f581b2b32cb3b7e3b704b9ce37cc209b5fb4d77e593ace405427691a25050565b600481511015613fe3576040517f21bbd70f00000000000000000000000000000000000000000000000000000000815260040160405180910390fd5b6000613fee82615297565b90507f8f9a34b8000000000000000000000000000000000000000000000000000000006001600160e01b031982160161405057600061402c83614463565b80602001905181019061403f91906152cb565b905061404a8161396d565b506126b4565b7fe8c7da27000000000000000000000000000000000000000000000000000000006001600160e01b03198216016140aa57600061408c83614463565b80602001905181019061409f91906152cb565b905061404a816130c7565b7f96b17f3d000000000000000000000000000000000000000000000000000000006001600160e01b03198216016141045760006140e683614463565b8060200190518101906140f991906152e8565b905061404a8161385c565b7f7a5a5002000000000000000000000000000000000000000000000000000000006001600160e01b031982160161415e57600061414083614463565b8060200190518101906141539190615301565b905061404a81613b32565b7f95a3f9d8000000000000000000000000000000000000000000000000000000006001600160e01b03198216016141b857600061419a83614463565b8060200190518101906141ad9190615301565b905061404a816138c3565b7f9ef4a6db000000000000000000000000000000000000000000000000000000006001600160e01b03198216016142125760006141f483614463565b80602001905181019061420791906152cb565b905061404a816136f0565b7f1ff63022000000000000000000000000000000000000000000000000000000006001600160e01b03198216016142775760008061424f84614463565b806020019051810190614262919061536f565b915091506142708282613e84565b50506126b4565b7f208f5263000000000000000000000000000000000000000000000000000000006001600160e01b03198216016142d15760006142b383614463565b8060200190518101906142c691906152e8565b905061404a81613deb565b7f311f4ae9000000000000000000000000000000000000000000000000000000006001600160e01b031982160161432b57600061430d83614463565b806020019051810190614320919061539e565b905061404a81613d66565b7ff28de92f000000000000000000000000000000000000000000000000000000006001600160e01b031982160161438557600061436783614463565b80602001905181019061437a91906152cb565b905061404a81612bc9565b7f3d6e6e7f000000000000000000000000000000000000000000000000000000006001600160e01b03198216016143df5760006143c183614463565b8060200190518101906143d491906152cb565b905061404a81613c7d565b6040517f7e13dff10000000000000000000000000000000000000000000000000000000081526001600160e01b031982166004820152602401611577565b6144256144e0565b613d5c576040517fd7e6bcf800000000000000000000000000000000000000000000000000000000815260040160405180910390fd5b6130a161441d565b606080600483510367ffffffffffffffff81111561448357614483614542565b6040519080825280601f01601f1916602001820160405280156144ad576020820181803683370190505b5090506024830160208201825160005b818110156144d55783810151838201526020016144bd565b509295945050505050565b60006144ea613d23565b5468010000000000000000900460ff16919050565b60006020828403121561451157600080fd5b81356001600160e01b0319811681146111f957600080fd5b60006020828403121561453b57600080fd5b5035919050565b634e487b7160e01b600052604160045260246000fd5b604051601f8201601f1916810167ffffffffffffffff8111828210171561458157614581614542565b604052919050565b600067ffffffffffffffff8211156145a3576145a3614542565b50601f01601f191660200190565b600082601f8301126145c257600080fd5b81356145d56145d082614589565b614558565b8181528460208386010111156145ea57600080fd5b816020850160208301376000918101602001919091529392505050565b60006020828403121561461957600080fd5b813567ffffffffffffffff81111561463057600080fd5b61463c848285016145b1565b949350505050565b6001600160a01b0381168114610d1557600080fd5b60006020828403121561466b57600080fd5b81356111f981614644565b6000806000806080858703121561468c57600080fd5b843561469781614644565b935060208501356146a781614644565b925060408501359150606085013567ffffffffffffffff8111156146ca57600080fd5b6146d6878288016145b1565b91505092959194509250565b60008083601f8401126146f457600080fd5b50813567ffffffffffffffff81111561470c57600080fd5b602083019150836020828501011115612adf57600080fd5b60008060006040848603121561473957600080fd5b83359250602084013567ffffffffffffffff81111561475757600080fd5b614763868287016146e2565b9497909650939450505050565b803565ffffffffffff8116811461478657600080fd5b919050565b6000806000806000608086880312156147a357600080fd5b85356147ae81614644565b945060208601359350604086013567ffffffffffffffff8111156147d157600080fd5b6147dd888289016146e2565b90945092506147f0905060608701614770565b90509295509295909350565b6000806040838503121561480f57600080fd5b82359150602083013561482181614644565b809150509250929050565b63ffffffff81168114610d1557600080fd5b60008060008060008060a0878903121561485757600080fd5b863561486281614644565b955060208701359450604087013567ffffffffffffffff81111561488557600080fd5b61489189828a016146e2565b90955093506148a4905060608801614770565b915060808701356148b48161482c565b809150509295509295509295565b600080600080606085870312156148d857600080fd5b84356148e381614644565b935060208501359250604085013567ffffffffffffffff81111561490657600080fd5b614912878288016146e2565b95989497509550505050565b60008060008060006080868803121561493657600080fd5b853561494181614644565b945060208601359350604086013567ffffffffffffffff81111561496457600080fd5b614970888289016146e2565b90945092505060608601356002811061498857600080fd5b809150509295509295909350565b60005b838110156149b1578181015183820152602001614999565b50506000910152565b600081518084526149d2816020860160208601614996565b601f01601f19169290920160200192915050565b60208152614a006020820183516001600160a01b03169052565b60006020830151614a1b604084018265ffffffffffff169052565b50604083015165ffffffffffff811660608401525060608301516001600160a01b038116608084015250608083015180151560a08401525060a083015180151560c08401525060c083015165ffffffffffff811660e08401525060e0830151610100614a8e8185018363ffffffff169052565b8401516101208481019190915284015161014080850152905061463c6101608401826149ba565b821515815260406020820152600061463c60408301846149ba565b60006101406001600160a01b03808e16845265ffffffffffff808e166020860152808d166040860152818c1660608601528a1515608086015289151560a086015280891660c0860152505063ffffffff861660e08401528461010084015280610120840152614b41818401856149ba565b9d9c50505050505050505050505050565b60008060208385031215614b6557600080fd5b823567ffffffffffffffff811115614b7c57600080fd5b614b88858286016146e2565b90969095509350505050565b60008151808452602080850194506020840160005b83811015614bce5781516001600160a01b031687529582019590820190600101614ba9565b509495945050505050565b6020815260006111f96020830184614b94565b6020815260006111f960208301846149ba565b600080600080600060808688031215614c1757600080fd5b8535614c2281614644565b945060208601359350604086013567ffffffffffffffff811115614c4557600080fd5b614c51888289016146e2565b96999598509660600135949350505050565b600067ffffffffffffffff821115614c7d57614c7d614542565b5060051b60200190565b600082601f830112614c9857600080fd5b81356020614ca86145d083614c63565b8083825260208201915060208460051b870101935086841115614cca57600080fd5b602086015b84811015614ce65780358352918301918301614ccf565b509695505050505050565b600080600080600060a08688031215614d0957600080fd5b8535614d1481614644565b94506020860135614d2481614644565b9350604086013567ffffffffffffffff80821115614d4157600080fd5b614d4d89838a01614c87565b94506060880135915080821115614d6357600080fd5b614d6f89838a01614c87565b93506080880135915080821115614d8557600080fd5b50614d92888289016145b1565b9150509295509295909350565b600082601f830112614db057600080fd5b81356020614dc06145d083614c63565b8083825260208201915060208460051b870101935086841115614de257600080fd5b602086015b84811015614ce6578035614dfa81614644565b8352918301918301614de7565b600080600080600060a08688031215614e1f57600080fd5b853567ffffffffffffffff80821115614e3757600080fd5b614e4389838a01614d9f565b96506020880135955060408801359150614e5c8261482c565b90935060608701359080821115614e7257600080fd5b614e7e89838a01614d9f565b93506080880135915080821115614e9457600080fd5b50614d9288828901614d9f565b60008060408385031215614eb457600080fd5b8235614ebf81614644565b946020939093013593505050565b604081526000614ee06040830185614b94565b90506001600160a01b03831660208301529392505050565b600060208284031215614f0a57600080fd5b81356111f98161482c565b60008060408385031215614f2857600080fd5b8235614f3381614644565b9150602083013561482181614644565b600080600080600060a08688031215614f5b57600080fd5b8535614f6681614644565b94506020860135614f7681614644565b93506040860135925060608601359150608086013567ffffffffffffffff811115614fa057600080fd5b614d92888289016145b1565b634e487b7160e01b600052602160045260246000fd5b8183823760009101908152919050565b600181811c90821680614fe657607f821691505b60208210810361500657634e487b7160e01b600052602260045260246000fd5b50919050565b81835281816020850137506000828201602090810191909152601f909101601f19169091010190565b60006001600160a01b03808a16835280891660208401525086604083015260c0606083015261506860c08301868861500c565b60808301949094525060a0015295945050505050565b634e487b7160e01b600052603260045260246000fd5b6000600182016150b457634e487b7160e01b600052601160045260246000fd5b5060010190565b60008083546150c981614fd2565b600182811680156150e157600181146150f657615125565b60ff1984168752821515830287019450615125565b8760005260208060002060005b8581101561511c5781548a820152908401908201615103565b50505082870194505b50929695505050505050565b634e487b7160e01b600052603160045260246000fd5b601f82111561309c576000816000526020600020601f850160051c810160208610156151705750805b601f850160051c820191505b8181101561518f5782815560010161517c565b505050505050565b815167ffffffffffffffff8111156151b1576151b1614542565b6151c5816151bf8454614fd2565b84615147565b602080601f8311600181146151fa57600084156151e25750858301515b600019600386901b1c1916600185901b17855561518f565b600085815260208120601f198616915b828110156152295788860151825594840194600190910190840161520a565b50858210156152475787850151600019600388901b60f8161c191681555b5050505050600190811b01905550565b85815260806020820152600061527160808301868861500c565b905065ffffffffffff8416604083015263ffffffff831660608301529695505050505050565b6000815160208301516001600160e01b031980821693506004831015610ffe5760049290920360031b82901b161692915050565b6000602082840312156152dd57600080fd5b81516111f981614644565b6000602082840312156152fa57600080fd5b5051919050565b60006020828403121561531357600080fd5b815167ffffffffffffffff81111561532a57600080fd5b8201601f8101841361533b57600080fd5b80516153496145d082614589565b81815285602083850101111561535e57600080fd5b61126b826020830160208601614996565b6000806040838503121561538257600080fd5b825161538d81614644565b602084015190925061482181614644565b6000602082840312156153b057600080fd5b81516111f98161482c56fea264697066735822122082e602054eb949eec5999380f8dc32e9f82011d124e60ad72776c7a3c84c13a564736f6c63430008160033",
  "linkReferences": {},
  "deployedLinkReferences": {}
}